:020000040800F2
:100000000028002029020008D1010008D9010008B9
:10001000E1010008E9010008F1010008000000000A
:10002000000000000000000000000000F9010008CE
:100030000502000800000000110200081D0200086F
:1000400071020008710200087102000871020008C4
:1000500071020008710200087102000871020008B4
:1000600071020008710200087102000871020008A4
:100070007102000871020008710200087102000894
:100080007102000871020008710200087102000884
:100090007102000871020008710200087102000874
:1000A0007102000871020008710200087102000864
:1000B00071020008710200080000000071020008CF
:1000C000710200080000000000000000710200083A
:1000D000000000007102000871020008000000002A
:1000E000710200087102000871020008000000009F
:1000F0000000000000000000000000000000000000
:0C01000000000000000000005FF808F1A3
:10010C000348044B834202D0034B03B1184770479A
:10011C000400002004000020000000000548064BED
:10012C001B1AD90F01EBA301491002D0034B03B1E9
:10013C001847704704000020040000200000000055
:10014C0010B5064C237843B9FFF7DAFF044B13B113
:10015C000448AFF300800123237010BD040000207D
:10016C0000000000BC02000808B5054B1BB1054996
:10017C000548AFF30080BDE80840FFF7CFBF00BFD4
:10018C000000000008000020BC02000880B400AF92
:10019C0000BFBD4680BC704780B400AF054B1B78D8
:1001AC001A46054B1B681344034A136000BFBD4637
:1001BC0080BC7047000000202000002080B400AFFD
:1001CC0000BFFDE780B400AF00BFFDE780B400AF17
:1001DC0000BFFDE780B400AF00BFFDE780B400AF07
:1001EC0000BFFDE780B400AF00BFFDE780B400AFF7
:1001FC0000BFBD4680BC704780B400AF00BFBD4699
:10020C0080BC704780B400AF00BFBD4680BC704757
:10021C0080B500AFFFF7C0FF00BF80BDFFF7B6FF92
:10022C000B480C490C4A002302E0D458C450043348
:10023C00C4188C42F9D3094A094C002301E013601D
:10024C000432A242FBD300F00FF8FFF7B7FF704760
:10025C000000002004000020DC0200080400002044
:10026C0024000020FEE7000070B500260C4D0D4B5D
:10027C005B1B9C10A64209D1002600F019F80A4D10
:10028C000A4B5B1B9C10A64205D170BD55F8043B74
:10029C0098470136EEE755F8043B98470136F2E7EC
:1002AC00D4020008D4020008D4020008D8020008C6
:1002BC00F8B500BFF8BC08BC9E467047F8B500BF47
:0802CC00F8BC08BC9E46704717
:0402D40075010008A8
:0402D8004D010008CC
:0402DC00010000001D
:0400000508000229C4
:00000001FF
